:100000000C9473000C949B000C949B000C94320491
:100010000C9432040C9432040C949B000C949B00BE
:100020000C949B000C949B000C949B000C949B00E4
:100030000C949B000C949B000C949B000C949B00D4
:100040000C94E8030C949B000C9430030C940A036A
:100050000C949B000C949B000C949B000C949B00B4
:100060000C949B000C949B00A50AA70AA90AAB0A52
:10007000AD0AAF0AB10AB30AB50AB70AB90ABB0A90
:10008000BD0ABF0AC10AC30A00000008000201003D
:100090000003040700000000000000000000000052
:1000A000250028002B0000000000240027002A0063
:1000B00000000000230026002900040404040404B6
:1000C0000404020202020202030303030303010207
:1000D00004081020408001020408102001020408D6
:1000E00010200E0BCB0A11241FBECFEFD8E0DEBFCD
:1000F000CDBF25E0AAEAB1E001C01D92A035B2074C
:10010000E1F711E0A0E0B1E0E6EDF1E202C0059018
:100110000D92AA3AB107D9F710E0C2E7D0E004C0C7
:100120002197FE010E94B80EC137D107C9F70E947E
:10013000CF060C94DE100C940000CF92DF92EF9269
:10014000FF920F931F93CF93DF936C017A018B0182
:10015000C0E0D0E0CE15DF0589F0D8016D918D01AA
:10016000D601ED91FC910190F081E02DC601099539
:10017000892B11F47E0102C02196ECCFC701DF91DB
:10018000CF911F910F91FF90EF90DF90CF90089546
:10019000FC01918D828D981761F0828DDF01A80F8F
:1001A000B11D5D968C91928D9F5F9F73928F90E0B1
:1001B00008958FEF9FEF0895FC01918D828D981720
:1001C00031F0828DE80FF11D858D90E008958FEF5D
:1001D0009FEF0895FC01918D228D892F90E0805C26
:1001E0009F4F821B91098F73992708958FE993E0A0
:1001F0000E94EA0021E0892B09F420E0822F089573
:10020000FC01848DDF01A80FB11DA35ABF4F2C91B3
:10021000848D90E001968F739927848FA689B78982
:100220002C93A089B1898C9180648C93938D848D5B
:10023000981306C00288F389E02D80818F7D80832A
:100240000895EF92FF920F931F93CF93DF93EC01EA
:1002500081E0888F9B8D8C8D981305C0E889F98982
:10026000808185FD24C0F62E0B8D10E00F5F1F4F9F
:100270000F731127E02E8C8DE8120CC00FB607FC0F
:10028000FACFE889F989808185FFF5CFCE010E94F8
:100290000001F1CF8B8DFE01E80FF11DE35AFF4FF6
:1002A000F0820B8FEA89FB898081806207C0EE892A
:1002B000FF896083E889F98980818064808381E097
:1002C00090E0DF91CF911F910F91FF90EF900895F3
:1002D000CF93DF93EC01888D8823C9F0EA89FB89ED
:1002E000808185FD05C0A889B9898C9186FD0FC0E4
:1002F0000FB607FCF5CF808185FFF2CFA889B989B9
:100300008C9185FFEDCFCE010E940001E7CFDF91F8
:10031000CF9108958FE993E00E94EA00892B99F02C
:10032000E0915D02F0915E028091C600E15AFD4FBE
:10033000808380915D0290915E02019690935E02AF
:1003400080935D02E7CF08950E94F60081110C941E
:100350008A0108953FB7F894809155029091560212
:10036000A0915702B091580226B5A89B05C02F3F17
:1003700019F00196A11DB11D3FBFBA2FA92F982FCB
:100380008827820F911DA11DB11DBC01CD0142E046
:10039000660F771F881F991F4A95D1F708952FB7C9
:1003A000F8946091510270915202809153029091A1
:1003B00054022FBF089520915B0230915C022817F0
:1003C000390771F49091590280915A02981741F0BF
:1003D000E0915902F0E0E05FFD4F808190E00895E8
:1003E0008FEF9FEF089508951F93CF93DF93DC0164
:1003F0005C962D913C915D972115310539F481E092
:1004000090E013969C938E9312973DC05196ED9178
:10041000FC91529750969C915097892F80951FB7C9
:100420005E964C915E9741FB772770F941FD609590
:10043000F8944081772311F0492B01C04823408371
:10044000E9012197F1F748E0508160FF02C0592B84
:1004500001C058235083E9012197F1F76695415077
:1004600099F7772321F090818923808303C08081CD
:10047000982B90831FBF5C968D919C915D970197FF
:10048000F1F721E030E0C901DF91CF911F9108958C
:1004900020915B0230915C022817390771F480913A
:1004A0005A022091590290E0805C9F4F821B910973
:1004B00060E470E00E94A40E089580E090E008954A
:1004C00020915B0230915C0228173907B9F49091B2
:1004D000590280915A02981789F0E0915902F0E090
:1004E000E05FFD4F80812091590230E02F5F3F4F48
:1004F0002F7333272093590290E008958FEF9FEFD9
:1005000008950E94C910FC01118210821382128288
:10051000158214826115710551F0FB0101900020D4
:10052000E9F73197AF01461B570B0C9492050895DC
:100530006115710579F0FB0101900020E9F7319711
:10054000AF01461B570BDC01ED91FC910280F3815A
:10055000E02D099480E090E008954F925F926F92B1
:100560007F92EF92FF920F931F93CF93DF93CDB7BC
:10057000DEB7A1970FB6F894DEBF0FBECDBF7C01EA
:10058000FA01CB0119A2223008F42AE08E010F5D96
:100590001F4F422E512C612C712CBF01A3019201DF
:1005A0000E944B0EF901CA01015011096A3014F47E
:1005B000605D01C0695CD8016C93232B242B252B33
:1005C00061F7B801C7010E949802A1960FB6F8948E
:1005D000DEBF0FBECDBFDF91CF911F910F91FF9076
:1005E000EF907F906F905F904F9008950F931F93BF
:1005F000CF93DF93EC010E9498028C0160E571E0DB
:10060000CE010E949802800F911FDF91CF911F9120
:100610000F9108951F920F920FB60F9211242F93EE
:100620003F934F935F936F937F938F939F93AF937A
:10063000BF93EF93FF938FE993E00E940001FF9136
:10064000EF91BF91AF919F918F917F916F915F914A
:100650004F913F912F910F900FBE0F901F901895C3
:100660001F920F920FB60F9211242F938F939F9387
:10067000EF93FF93E091AF03F091B0038081E0919D
:10068000B503F091B60382FD12C090818091B8034A
:100690008F5F8F732091B903821751F0E091B803F7
:1006A000F0E0E156FC4F958F8093B80301C0808144
:1006B000FF91EF919F918F912F910F900FBE0F900F
:1006C0001F90189590E0FC01E857FF4F3491FC0112
:1006D000E253FF4F2491FC01E654FF4FE491EE23D7
:1006E00009F43BC0332339F1333091F038F4313021
:1006F000A9F0323001F584B58F7D12C0373091F00A
:100700003830A1F03430B9F4809180008F7D03C07F
:10071000809180008F77809380000DC084B58F77A3
:1007200084BD09C08091B0008F7703C08091B00074
:100730008F7D8093B000F0E0EE0FFF1FE456FF4F77
:10074000A591B4918FB7F894EC91611103C02095F5
:100750002E2301C02E2B2C938FBF08958F929F9232
:10076000AF92BF92CF92DF92EF92FF926B017C012A
:100770000E94AA014B015C01C114D104E104F104FF
:10078000F1F00E94AA01DC01CB0188199909AA099C
:10079000BB09883E9340A105B10570F321E0C21A60
:1007A000D108E108F10888EE880E83E0981EA11CAC
:1007B000B11CC114D104E104F10419F7DDCFFF909D
:1007C000EF90DF90CF90BF90AF909F908F90089563
:1007D0001F920F920FB60F9211242F933F938F9376
:1007E0009F93AF93BF938091510290915202A09139
:1007F0005302B09154023091500223E0230F2D3761
:1008000020F40196A11DB11D05C026E8230F029614
:10081000A11DB11D2093500280935102909352026A
:10082000A0935302B09354028091550290915602C6
:10083000A0915702B09158020196A11DB11D80935D
:10084000550290935602A0935702B0935802BF915D
:10085000AF919F918F913F912F910F900FBE0F906D
:100860001F9018951F920F920FB60F9211242F937D
:100870003F934F935F936F937F938F939F93AF9328
:10088000BF93EF93FF93E0915B02F0915C0230978E
:1008900009F451C0968DA685B785858591FF04C062
:1008A0009C91892329F447C09C91892309F043C076
:1008B000A389B4899C918589809589238C938689A5
:1008C00097890197F1F7608D718DA685B78555855C
:1008D00038E020E0CB010197F1F7822F90E0959569
:1008E0008795282F4C91452309F02068315091F7C6
:1008F000868D81FD209580915A0290E001968F733C
:10090000992730915902381749F0A0915A02B0E066
:10091000A05FBD4F2C9380935A0203C0868D8160E7
:10092000868F828D938D0197F1F7A389B4899C916D
:100930008589892B8C93FF91EF91BF91AF919F9106
:100940008F917F916F915F914F913F912F910F9078
:100950000FBE0F901F9018951F920F920FB60F9217
:1009600011248F939F93EF93FF93E0915D02F09199
:100970005E028091C600E15AFD4F808380915D0246
:1009800090915E02019690935E0280935D02FF91CA
:10099000EF919F918F910F900FBE0F901F90189520
:1009A0000F931F93CF93DF93EC0188819981009778
:1009B00029F02A813B812617370788F48B016F5F66
:1009C0007F4F0E94FF0F009761F0998388831B83FC
:1009D0000A832C813D81232B11F4FC01108281E0DC
:1009E00001C080E0DF91CF911F910F910895682F92
:1009F0008FE993E00C942101CF93DF93482F50E0CF
:100A000060E070E022E084E894E00E94AD02EC0136
:100A100060E571E084E894E00E9498028C0F9D1FCD
:100A2000DF91CF910895CF92DF92EF92FF92CF9313
:100A3000DF936C01990FEE08FF08F7FE1CC0E091F0
:100A40008404F09185040190F081E02D6DE284E84A
:100A500094E00995EC0144275527BA014C195D092A
:100A60006E097F092AE084E894E00E94AD027C01CF
:100A7000EC0EFD1E08C02AE0B701A60184E894E050
:100A80000E94AD027C0160E571E084E894E00E9480
:100A900098028E0D9F1DDF91CF91FF90EF90DF9018
:100AA000CF900895EF92FF920F931F93CF93DF9310
:100AB000FC01248135816115710511F480E019C0B4
:100AC00041155105A9F07B01EC018A01020F131FAA
:100AD000B8010E94D004882389F3288139818C8150
:100AE0009D81B701820F931F0E94D7101D830C8335
:100AF00081E0DF91CF911F910F91FF90EF900895CA
:100B0000CF93DF93EC0188819981009711F00E94C7
:100B1000670F198218821D821C821B821A82DF9144
:100B2000CF910895EF92FF920F931F93CF93DF938E
:100B3000EC017B018A01BA010E94D004811104C03A
:100B4000CE010E94800507C01D830C83B7018881F8
:100B500099810E94D710CE01DF91CF911F910F9103
:100B6000FF90EF900895CF93DF93EC01611571052D
:100B700059F0FB0101900020E9F73197AF01461BC6
:100B8000570B0E94920502C00E948005CE01DF91A2
:100B9000CF910895CF92DF92EF92FF920F931F9320
:100BA000CF93DF9300D0CDB7DEB77C016B018A0114
:100BB0006FE971E0CA010E94B30547E050E0B60159
:100BC0008FE993E00E949D0080919D0390919E0388
:100BD000019690939E0380939D0366E970E080E008
:100BE00090E00E94AE038FE993E00E94EA00892B17
:100BF00071F08FE993E00E94C80089831A8241E076
:100C000050E0BE016F5F7F4FC8010E9452058FE91F
:100C100093E00E94EA00892B81F08091C00087FF59
:100C2000FCCF8091C60089831A8241E050E0BE016A
:100C30006F5F7F4FC8010E94520547E050E065E1B9
:100C400071E08FE993E00E949D0066E970E080E02A
:100C500090E00E94AE038AE090E00E94F704F80161
:100C600084819581892B09F1F70111821082138209
:100C7000128215821482F80180819181F70191839B
:100C80008083F80182819381F70193838283F80145
:100C900084819581F70195838483F8011182108204
:100CA000138212821582148205C062E571E0C701C9
:100CB0000E948302C7010F900F90DF91CF911F9187
:100CC0000F91FF90EF90DF90CF9008950F931F93B7
:100CD000CF93DF93CDB7DEB762970FB6F894DEBF40
:100CE0000FBECDBF8C01CB01F8011182108213829F
:100CF00012821582148250E0BE016F5F7F4F0E9406
:100D00000B0EBE016F5F7F4FC8010E94B305629654
:100D10000FB6F894DEBF0FBECDBFDF91CF911F910C
:100D20000F910895CF93DF93EC01FB01861797078E
:100D300061F0608171816115710529F044815581EF
:100D40000E94920502C00E948005CE01DF91CF91E2
:100D50000895FC01808191810C94670FCF93DF93FC
:100D600000D0CDB7DEB7FC0111821082138212824F
:100D70001582148269831A82BE016F5F7F4F0E94C1
:100D8000B3050F900F90DF91CF910895FC01118270
:100D9000108213821282158214820C949206CF93D1
:100DA000DF93CDB7DEB72C970FB6F894DEBF0FBE3A
:100DB000CDBF789484B5826084BD84B5816084BDE4
:100DC00085B5826085BD85B5816085BD80916E00E9
:100DD000816080936E00109281008091810082601A
:100DE0008093810080918100816080938100809157
:100DF00080008160809380008091B1008460809346
:100E0000B1008091B00081608093B00080917A0041
:100E1000846080937A0080917A00826080937A0067
:100E200080917A00816080937A0080917A00806856
:100E300080937A001092C100109280041092810475
:100E4000109282041092830410923E0410923F0488
:100E5000109240041092410468EB7BE080E090E047
:100E60000E94AE038FE993E090937F0480937E0409
:100E7000E091AF03F091B00312E01083E091AB0377
:100E8000F091AC031082E091AD03F091AE0380E1EC
:100E900080831092B703E091B303F091B40386E02E
:100EA0008083E091B103F091B203808180618083FF
:100EB000E091B103F091B203808188608083E0917A
:100EC000B103F091B203808180688083E091B10327
:100ED000F091B20380818F7D80830E94CF01609367
:100EE0003E0470933F04809340049093410461E476
:100EF00071E080917E0490917F040E9498026AE0E4
:100F000070E080E090E00E94AE0381E080935204A4
:100F1000E091AF03F091B0031083E091AB03F09147
:100F2000AC031082E091AD03F091AE038FEC8083AF
:100F30001092B703E091B303F091B4038EE0808385
:100F4000E091B103F091B203808180618083E091F0
:100F5000B103F091B203808188608083E091B10396
:100F6000F091B203808180688083E091B103F091B9
:100F7000B20380818F7D808310929F0410929E0423
:100F800010929D0410929C0410929B0410929A045B
:100F900082E490E09093A1048093A0049091900447
:100FA000963108F057C02FE030E030939B04209337
:100FB0009A0420E430E030939D0420939C0427E2BF
:100FC00030E030939F0420939E0420916800983075
:100FD00050F031E09E3008F430E081E001C0880F2D
:100FE0003A95EAF701C084E0822B8093680098303C
:100FF00038F09E3040F0963148F020E030E008C0F4
:101000002DE630E005C02BE630E002C02CE630E0F3
:101010003093980420939704983030F481E001C015
:10102000880F9A95EAF70EC0292F30E09E3018F409
:101030002850310902C02E50310981E001C0880FCB
:101040002A95EAF7809399048091A0049091A104D5
:101050000197F1F780919E0490919F04892B49F1AB
:10106000E0915B02F0915C0224E0E438F20709F1C0
:10107000309739F0A389B4899C918589809589231B
:101080008C938091A2048E7F8093A20410925A02C6
:101090001092590284E894E090935C0280935B0282
:1010A000E0919704F0919804908180919904892BA4
:1010B000808384EF882E99249394A12CB12C0FE582
:1010C00012E00E94CF01672B682B692B41F40E942C
:1010D000CF01623071058105910508F405C10E94B8
:1010E000CF0160938F03709390038093910390934B
:1010F0009203C0908B03D0908C03E0908D03F0900E
:101100008E036C157D058E059F0540F460938B035F
:1011100070938C0380938D0390938E03C0908B0308
:10112000D0908C03E0908D03F0908E039B01AC0176
:101130002C193D094E095F0969017A013AEFC3167E
:10114000D104E104F10408F4CFC060938B037093E1
:101150008C0380938D0390938E0380924A04909227
:101160004B04A0924C04B0924D0410924E04109285
:101170004F041092500410925104809142049091B7
:101180004304A0914404B091450480934604909395
:101190004704A0934804B09349040E94CF01609390
:1011A00042047093430480934404909345040E9446
:1011B000CF0160933E0470933F048093400490936A
:1011C00041040E94CF016B017C0163E571E08091D5
:1011D0007E0490917F040E9498022AE041E050E052
:1011E00060E070E080917E0490917F040E94AD02E7
:1011F0006AE571E080917E0490917F040E949802DC
:101200002AE0B701A60180917E0490917F040E949C
:10121000AD026CE571E080917E0490917F040E94A4
:1012200098028091420490914304A0914404B091AB
:101230004504B701A601481B590B6A0B7B0B2AE03A
:1012400080917E0490917F040E94AD026CE571E074
:1012500080917E0490917F040E9498024091420404
:101260005091430460914404709145048091460478
:1012700090914704A0914804B0914904481B590B30
:101280006A0B7B0B2AE080917E0490917F040E9480
:10129000AD026EE571E080917E0490917F040E9422
:1012A00098020E94CF01AB01BC012AE080917E042C
:1012B00090917F040E94AD0260E671E080917E040F
:1012C00090917F040E94F60265E070E080E090E07B
:1012D0000E94AE030E94CF016093420470934304C6
:1012E000809344049093450485E590E00E94F704C0
:1012F00080919D0390919E03019690939E0380930D
:101300009D0366E970E080E090E00E94AE038AE011
:1013100090E00E94F704EEE0F1E08191882339F03B
:101320009091C00095FFFCCF8093C600F6CF8091CE
:101330009D0390919E03019690939E0380939D033D
:1013400066E970E080E090E00E94AE0366E970E03C
:1013500080E090E00E94AE038FE993E00E94EA00F3
:10136000892B41F08091C00087FFFCCF8091C6009F
:1013700080932703E0918404F09185040190F0812B
:10138000E02D602F84E894E0099561E571E084E840
:1013900094E00E94F60280919D0390919E030E942A
:1013A000130567E273E084E894E00E94F60267E6C2
:1013B00071E084E894E00E94980280915D0290912F
:1013C0005E020E94130566E475E0CE0107960E9456
:1013D000C606AE01495F5F4F67E071E0CE0101963E
:1013E0000E94CA05CE0101960E94A906CE01079669
:1013F0000E94A90666E475E0CE0101960E94C60629
:10140000AE014F5F5F4F60E071E0CE0107960E9432
:10141000CA05CE0101960E94A906BE01695F7F4FF1
:10142000CE0101960E94C60643E050E063E771E0FA
:10143000CE0101960E945205882309F476C0BE01B0
:101440006F5F7F4FCE0107960E949206CE010196F4
:101450000E94A90667E771E084E894E00E94F60222
:101460004B855C856F81788584E894E00E949D00BF
:1014700060E571E084E894E00E94980261E871E020
:1014800084E894E00E94F6028091C0000E94FC046F
:1014900068E871E084E894E00E94F6028091C1005F
:1014A0000E94FC046FE871E084E894E00E94F60278
:1014B0008091C2000E94FC0466E971E084E894E037
:1014C0000E94F6022AE04AE050E060E070E084E822
:1014D00094E00E94AD0260E571E084E894E00E942F
:1014E00098022AE047E050E060E070E084E894E091
:1014F0000E94AD0260E571E084E894E00E949802E9
:1015000010925E0210925D0284E090E00E94F70467
:1015100060E87AE186E090E00E94AE03CE01079693
:101520000E94A9060E94A401CCCDCE0101960E9482
:10153000800585CFCF93DF93EC016031710538F5DD
:10154000FB01EC5CFF4F0C94B80E60E31DC061E33F
:101550001BC062E319C063E317C064E315C065E311
:1015600013C066E311C067E30FC068E30DC069E311
:101570000BC061E409C062E407C063E405C064E431
:1015800003C065E401C066E4CE010E94AE06CE0150
:10159000DF91CF91089585E391E090938504809346
:1015A000840480915B0290915C028458944071F4B1
:1015B000E0919704F091980490818091990480952E
:1015C0008923808310925C0210925B028CEA94E083
:1015D0000E94A90682EB94E00E94A90688EB94E0A1
:1015E0000E94A9068EEB94E00E94A90684EC94E088
:1015F0000E94A9068AEC94E00E94A90680ED94E07E
:101600000E94A90686ED94E00E94A90680E495E078
:101610000E94A90686E495E00C94A906CF92DF9279
:10162000EF92FF92CF93DF93CDB7DEB762970FB6FD
:10163000F894DEBF0FBECDBF1092A2031092A1039B
:1016400068EEC62E63E0D62EE12CF12CC092A303E7
:10165000D092A403E092A503F092A60385E291E064
:101660009093A00380939F0385EC90E09093AC034C
:101670008093AB0384EC90E09093AE038093AD0332
:1016800080EC90E09093B0038093AF0381EC90E006
:101690009093B2038093B10382EC90E09093B403F3
:1016A0008093B30386EC90E09093B6038093B503E8
:1016B0001092B8031092B9031092BA031092BB03B0
:1016C0001092420410924304109244041092450474
:1016D0001092460410924704109248041092490454
:1016E00010924A0410924B0410924C0410924D0434
:1016F00010924E0410924F04109250041092510414
:101700006AE971E086E495E00E94830262E571E097
:1017100080E495E00E9483026091E60470E0CE01CF
:101720000D960E949A0A6091E50470E04AE0CE01AD
:1017300001960E946606BE016F5F7F4FCE0107963D
:101740000E94C606BE01635F7F4FCE0107960E94CE
:10175000F80DBC0186ED94E00E94C606CE01079606
:101760000E94A906CE0101960E94A906CE010D96FF
:101770000E94A9066091E80470E0CE010D960E94D7
:101780009A0A6091E70470E04AE0CE0101960E9457
:101790006606BE016F5F7F4FCE0107960E94C606A8
:1017A000BE01635F7F4FCE0107960E94F80DBC011A
:1017B00080ED94E00E94C606CE0107960E94A9061D
:1017C000CE0101960E94A906CE010D960E94A9069F
:1017D0006091EA0470E0CE010D960E949A0A609131
:1017E000E90470E04AE0CE0101960E946606BE015F
:1017F0006F5F7F4FCE0107960E94C606BE01635FF2
:101800007F4FCE0107960E94F80DBC018AEC94E050
:101810000E94C606CE0107960E94A906CE01019637
:101820000E94A906CE010D960E94A9066091F004BF
:1018300070E0CE010D960E949A0A6091EF0470E06C
:101840004AE0CE0101960E946606BE016F5F7F4F9F
:10185000CE0107960E94C606BE01635F7F4FCE0190
:1018600007960E94F80DBC0184EC94E00E94C60625
:10187000CE0107960E94A906CE0101960E94A906F4
:10188000CE010D960E94A9066091F20470E0CE018F
:101890000D960E949A0A6091F10470E04AE0CE0130
:1018A00001960E946606BE016F5F7F4FCE010796CC
:1018B0000E94C606BE01635F7F4FCE0107960E945D
:1018C000F80DBC018EEB94E00E94C606CE0107968F
:1018D0000E94A906CE0101960E94A906CE010D968E
:1018E0000E94A9066091F40470E0CE010D960E945A
:1018F0009A0A6091F30470E04AE0CE0101960E94DA
:101900006606BE016F5F7F4FCE0107960E94C60636
:10191000BE01635F7F4FCE0107960E94F80DBC01A8
:1019200088EB94E00E94C606CE0107960E94A906A5
:10193000CE0101960E94A906CE010D960E94A9062D
:101940006091F60470E0CE010D960E949A0A6091B3
:10195000F50470E04AE0CE0101960E946606BE01E1
:101960006F5F7F4FCE0107960E94C606BE01635F80
:101970007F4FCE0107960E94F80DBC0182EB94E0E8
:101980000E94C606CE0107960E94A906CE010196C6
:101990000E94A906CE010D960E94A9066091F80446
:1019A00070E0CE010D960E949A0A6091F70470E0F3
:1019B0004AE0CE0101960E946606BE016F5F7F4F2E
:1019C000CE0107960E94C606BE01635F7F4FCE011F
:1019D00007960E94F80DBC018CEA94E00E94C606AE
:1019E000CE0107960E94A906CE0101960E94A90683
:1019F000CE010D960E94A9069091E5048091E6041F
:101A000020E1929F800D11248093AB042091E70484
:101A10009091E80430E1239F900D11249093AA0443
:101A20003091E9042091EA0440E1349F200D112413
:101A30002093A9043091EF042091F004E0E13E9F4F
:101A4000200D11242093A8043091F1042091F20478
:101A5000F0E13F9F200D11242093A7043091F3045F
:101A60002091F40440E1349F200D11242093A6041A
:101A70003091F5042091F604E0E13E9F200D112401
:101A80002093A5043091F7042091F804F0E13F9FE2
:101A9000200D11242093A404890F8093A304109295
:101AA000870410928604C0928804D0928904E09240
:101AB0008A04F0928B0485E391E0909385048093EF
:101AC000840410929B0410929A0410929D04109228
:101AD0009C0410929F0410929E041092A1041092F4
:101AE000A0046091A2046E7F6D7F6093A20466954E
:101AF000617081E0682789E00E946203E7EDF0E011
:101B00002491E3ECF0E08491882399F090E0880F31
:101B1000991FFC01EA55FF4FA591B491FC01E456D1
:101B2000FF4F859194918FB7F894EC91E22BEC9351
:101B30008FBFE7EDF0E0E491E0939404E3ECF0E094
:101B4000E491F0E0EE0FFF1FE456FF4F8591949172
:101B50009093960480939504E6EDF0E02491E2ECF6
:101B6000F0E084918823C9F090E0880F991FFC0170
:101B7000EA55FF4F45915491FC01E456FF4FA59162
:101B8000B4919FB7F894FA018081209582238083D5
:101B90008C91E22FE823EC939FBF8091A20481FDFA
:101BA00004C061E088E00E94620388E080939004B2
:101BB000E6EDF0E0E491E0939104E2ECF0E0E491F2
:101BC000F0E0EE0FFF1FE055FF4F85919491909349
:101BD00093048093920462960FB6F894DEBF0FBE12
:101BE000CDBFDF91CF91FF90EF90DF90CF90089520
:101BF000CF93DF93EC01FB014481558160817181BA
:101C00000E945205811103C0CE010E948005CE01C1
:101C1000DF91CF9108954532510520F4423010F004
:101C20000C94160EFB011082CB010895BB274A309D
:101C300031F4992322F4BDE2909581959F4F0C9445
:101C4000220EBB27FB015527AA27880F991FAA1F21
:101C5000A41710F0A41B83955051B9F7A05DAA33C7
:101C600008F0A95DA193009779F7B111B193119292
:101C7000CB010C943B0EDC01FC01672F71917723A3
:101C8000E1F7329704C07C916D9370836291AE1737
:101C9000BF07C8F30895A1E21A2EAA1BBB1BFD01C2
:101CA0000DC0AA1FBB1FEE1FFF1FA217B307E4073B
:101CB000F50720F0A21BB30BE40BF50B661F771F93
:101CC000881F991F1A9469F7609570958095909573
:101CD0009B01AC01BD01CF0108952F923F924F921D
:101CE0005F926F927F928F929F92AF92BF92CF92AC
:101CF000DF92EF92FF920F931F93CF93DF93CDB7B5
:101D0000DEB7CA1BDB0B0FB6F894DEBF0FBECDBF2C
:101D100009942A88398848885F846E847D848C84FD
:101D20009B84AA84B984C884DF80EE80FD800C8106
:101D30001B81AA81B981CE0FD11D0FB6F894DEBFE9
:101D40000FBECDBFED01089597FB072E16F400944A
:101D500007D077FD09D00E94BE0E07FC05D03EF4E7
:101D6000909581959F4F0895709561957F4F089547
:101D7000EE0FFF1F0590F491E02D0994AA1BBB1BE9
:101D800051E107C0AA1FBB1FA617B70710F0A61B7B
:101D9000B70B881F991F5A95A9F780959095BC019C
:101DA000CD010895CF93DF938230910510F482E046
:101DB00090E0E0914E05F0914F0520E030E0C0E06A
:101DC000D0E0309711F14081518148175907C0F098
:101DD0004817590761F482819381209719F09B83FA
:101DE0008A832BC090934F0580934E0526C0211502
:101DF000310519F04217530718F49A01BE01DF01AB
:101E0000EF010280F381E02DDCCF2115310509F1CE
:101E1000281B390B2430310590F412968D919C913A
:101E200013976115710521F0FB019383828304C030
:101E300090934F0580934E05FD01329644C0FD01FD
:101E4000E20FF31F81939193225031092D933C931C
:101E50003AC020914C0530914D05232B41F420913F
:101E60001D0130911E0130934D0520934C052091AA
:101E70001B0130911C012115310541F42DB73EB7EE
:101E800040911F0150912001241B350BE0914C051E
:101E9000F0914D05E217F307A0F42E1B3F0B281716
:101EA000390778F0AC014E5F5F4F2417350748F0D3
:101EB0004E0F5F1F50934D0540934C0581939193B6
:101EC00002C0E0E0F0E0CF01DF91CF9108950F93E1
:101ED0001F93CF93DF93009709F48CC0FC013297D6
:101EE0001382128200914E0510914F0501151105C4
:101EF00081F420813181820F931F20914C05309114
:101F00004D052817390779F5F0934D05E0934C05F9
:101F100071C0D80140E050E0AE17BF0750F41296F0
:101F20002D913C911397AD012115310509F1D9018E
:101F3000F3CF9D01DA013383228360817181860FA3
:101F4000971F8217930769F4EC0128813981260FC6
:101F5000371F2E5F3F4F318320838A819B8193837C
:101F60008283452B29F4F0934F05E0934E0542C040
:101F70001396FC93EE931297ED01499159919E01AE
:101F8000240F351FE217F30771F480819181840FCC
:101F9000951F029611969C938E938281938113963E
:101FA0009C938E931297E0E0F0E0D80112968D9109
:101FB0009C911397009719F0F8018C01F6CF8D9141
:101FC0009C9198012E5F3F4F820F931F20914C05EB
:101FD00030914D052817390769F4309729F410928C
:101FE0004F0510924E0502C01382128210934D05C8
:101FF00000934C05DF91CF911F910F910895A0E0C0
:10200000B0E0E5E0F0E10C94710EEC01009721F4F2
:10201000CB010E94D20EB8C0FC01E60FF71F9C0155
:1020200022503109E217F30708F4ACC0D9010D9131
:102030001C91119706171707B0F00530110508F429
:102040009FC0C80104978617970708F499C00250EB
:102050001109061B170B019311936D937C93CF010C
:102060000E94670F8DC05B01A01AB10A4C01800E5F
:10207000911EA0914E05B0914F0540E050E0E12C3B
:10208000F12C109709F44AC0A815B905D1F56D9047
:102090007C901197630182E0C80ED11CCA14DB0446
:1020A00080F1A3014A195B096A0182E0C80ED11CC4
:1020B0001296BC9012971396AC91B5E0CB16D10452
:1020C00040F0B282A38351834083D9016D937C9306
:1020D0000AC00E5F1F4FC301800F911FF90191834A
:1020E0008083EB2DFA2FE114F10431F0D701139620
:1020F000FC93EE93129744C0F0934F05E0934E0586
:102100003FC08D919C9111974817590708F4AC0175
:102110007D0112960D90BC91A02DB3CF80914C05FE
:1021200090914D0588159905E1F446175707C8F4B5
:1021300080911B0190911C01009741F48DB79EB7CF
:1021400040911F0150912001841B950BE817F9075E
:10215000C8F4F0934D05E0934C05F9017183608359
:102160000FC0CB010E94D20E7C01009759F0A8014C
:10217000BE010E94CE10CE010E94670FC70104C0AD
:10218000CE0102C080E090E0CDB7DEB7EEE00C9467
:102190008D0E81E090E0F8940C94DE10FB01DC01E0
:1021A00002C001900D9241505040D8F70895FB01B4
:1021B000DC0101900D920020E1F7089510E0C2E7E4
:1021C000D0E004C0FE010E94B80E2196C337D107AB
:0621D000C9F7F894FFCFEF
:1021D6000243504331333A0243504334303A0243C8
:1021E600504330353B0150433730060000500580E0
:1021F600000000000021019D00EA00C800DC006824
:102206000100000000F4019D0048026002DB01F3BA
:1022160001564D4450565F317C315F564D44505601
:102226000D0A00564D4450455F003A323A007C0094
:102236005F564D4450450049206973206E6F7720E4
:102246003A20004F4B21004E4942502044617461B0
:1022560000554353523041005543535230420055C6
:1022660043535230430041636B005445535400437B
:0A2276006865636B696E6720000065
:00000001FF
